:020000040000FA
:100000000C9462000C948A000C948A000C948A0070
:100010000C948A000C948A000C948A000C948A0038
:100020000C948A000C948A000C948A000C948A0028
:100030000C948A000C948A000C948A000C948A0018
:100040000C94FB020C948A000C946B030C944503F3
:100050000C948A000C948A000C948A000C948A00F8
:100060000C948A000C948A000000000024002700F1
:100070002A000000000023002600290000000000E4
:10008000250028002B0004040404040404040202D4
:100090000202020203030303030301020408102007
:1000A0004080010204081020010204081020000012
:1000B0000008000201000003040700000000000027
:1000C0000000910411241FBECFEFD8E0DEBFCDBFEA
:1000D00011E0A0E0B1E0E0EDF9E002C005900D9282
:1000E000A232B107D9F721E0A2E2B1E001C01D922E
:1000F000A93CB207E1F710E0C2E6D0E004C02197C6
:10010000FE010E94E004C136D107C9F70E949D0399
:100110000C94E6040C940000833081F028F48130C4
:1001200099F08230A9F008958730A9F08830C9F09D
:100130008430B1F4809180008F7D03C08091800075
:100140008F7780938000089584B58F7784BD08955C
:1001500084B58F7DFBCF8091B0008F778093B00006
:1001600008958091B0008F7DF9CF1F93CF93DF93D7
:10017000E0EBF0E09491ECE9F0E0D491E8E8F0E015
:10018000C491CC23B9F0182F992319F0892F0E941C
:100190008C00EC2FF0E0EE0FFF1FE458FF4FA5910D
:1001A000B4918FB7F894EC91111108C0D095DE236B
:1001B000DC938FBFDF91CF911F910895DE2BF8CF95
:1001C000CF93DF93282F30E0F901E255FF4F849160
:1001D000F901E656FF4FD491F901EA57FF4FC49158
:1001E000CC23A1F081110E948C00EC2FF0E0EE0FE7
:1001F000FF1FEE58FF4FA591B491EC91ED2381E0E4
:1002000090E009F480E0DF91CF91089580E090E0E4
:10021000FACFCF93DF9390E0FC01E656FF4F249195
:100220008A579F4FFC0184918823D1F090E0880F7A
:10023000991FFC01E859FF4FA591B491FC01E458C6
:10024000FF4FC591D49161110EC09FB7F8948C9166
:10025000E22FE0958E238C932881E223E8839FBFD1
:10026000DF91CF9108958FB7F894EC91E22BEC9346
:100270008FBFF6CF8E50806480937C0080917A008F
:10028000806480937A0080917A0086FDFCCF809113
:100290007800909179000895AF92BF92CF92DF924B
:1002A000EF92FF920F931F93CF93DF936C017B012B
:1002B0008B01040F151FEB015E01AE18BF08C017BC
:1002C000D10759F06991D601ED91FC910190F0812F
:1002D000E02DC6010995892B79F7C501DF91CF91F2
:1002E0001F910F91FF90EF90DF90CF90BF90AF9054
:1002F0000895FC01538D448D252F30E0842F90E02C
:10030000821B930B541710F0CF9608950197089510
:10031000FC01918D828D981761F0A28DAE0FBF2FD9
:10032000B11D5D968C91928D9F5F9F73928F90E02F
:1003300008958FEF9FEF0895FC01918D828D98179E
:1003400031F0828DE80FF11D858D90E008958FEFDB
:100350009FEF0895FC01918D228D892F90E0805CA4
:100360009F4F821B91098F73992708958CE291E02A
:100370000E94AA0121E0892B09F420E0822F089530
:1003800080E090E0892B29F00E94B60181110C9445
:1003900000000895FC01A48DA80FB92FB11DA35A28
:1003A000BF4F2C91848D90E001968F739927848F95
:1003B000A689B7892C93A089B1898C9183708064B8
:1003C0008C93938D848D981306C00288F389E02D59
:1003D00080818F7D80830895EF92FF920F931F930A
:1003E000CF93DF93EC0181E0888F9B8D8C8D9813E8
:1003F0001AC0E889F989808185FF15C09FB7F894F4
:10040000EE89FF896083E889F9898081837080643F
:1004100080839FBF81E090E0DF91CF911F910F918A
:10042000FF90EF900895F62E0B8D10E00F5F1F4F99
:100430000F731127E02E8C8D8E110CC00FB607FCA8
:10044000FACFE889F989808185FFF5CFCE010E9436
:10045000CA01F1CFEB8DEC0FFD2FF11DE35AFF4FD9
:10046000F0829FB7F8940B8FEA89FB8980818062C4
:10047000CFCFCF93DF93EC01888D8823B9F0AA8981
:10048000BB89E889F9898C9185FD03C0808186FD4F
:100490000DC00FB607FCF7CF8C9185FFF2CF80819E
:1004A00085FFEDCFCE010E94CA01E9CFDF91CF9148
:1004B0000895CF93C82F0E94E0002FB7F894409181
:1004C00028015091290160912A0170912B012FBFC1
:1004D000433351056105710520F08C2FCF910C94A9
:1004E000E000CF910895FC0101900020E9F73197D9
:1004F000AF01481B590BBC018CE291E00C944C01FC
:100500008F929F92AF92BF92CF92DF92EF92FF9223
:100510000F931F93CF93DF93CDB7DEB7A1970FB69D
:10052000F894DEBF0FBECDBF6B017C01F7FE41C06A
:100530006DE28CE291E00E94EC018C0122273327CE
:10054000A9012C193D094E095F0919A2CE01819616
:100550007C019AE0892E912CA12CB12CCA01B90101
:10056000A50194010E94BE04605DF70162937F01C2
:10057000211531054105510589F790E080E030975C
:1005800019F0CF010E947302800F911FA1960FB640
:10059000F894DEBF0FBECDBFDF91CF911F910F91B9
:1005A000FF90EF90DF90CF90BF90AF909F908F9093
:1005B0000895AC019B0119A28E010F5D1F4F8AE0C7
:1005C000C82ED12CE12CF12CCA01B901A70196014A
:1005D0000E94BE04605DF80162938F012115310510
:1005E0004105510589F790E080E0309779F2CF011D
:1005F0000E947302CBCF1F920F920FB60F9211245D
:100600002F933F938F939F93AF93BF938091280134
:1006100090912901A0912A01B0912B0130912701DD
:1006200023E0230F2D3758F50196A11DB11D20930E
:1006300027018093280190932901A0932A01B09368
:100640002B018091230190912401A0912501B0916B
:1006500026010196A11DB11D8093230190932401D1
:10066000A0932501B0932601BF91AF919F918F91E7
:100670003F912F910F900FBE0F901F90189526E875
:10068000230F0296A11DB11DD2CF1F920F920FB65C
:100690000F9211242F933F934F935F936F937F9308
:1006A0008F939F93AF93BF93EF93FF938CE291E06F
:1006B0000E94CA01FF91EF91BF91AF919F918F91DD
:1006C0007F916F915F914F913F912F910F900FBE4E
:1006D0000F901F9018951F920F920FB60F92112432
:1006E0002F938F939F93EF93FF93E0913C01F091B1
:1006F0003D018081E0914201F091430182FD1BC0E8
:100700009081809145018F5F8F7320914601821700
:1007100041F0E0914501F0E0E45DFE4F958F80935C
:100720004501FF91EF919F918F912F910F900FBEF7
:100730000F901F9018958081F4CF789484B58260D3
:1007400084BD84B5816084BD85B5826085BD85B575
:10075000816085BD80916E00816080936E001092F3
:10076000810080918100826080938100809181006E
:1007700081608093810080918000816080938000FF
:100780008091B10084608093B1008091B00081605D
:100790008093B00080917A00846080937A00809189
:1007A0007A00826080937A0080917A0081608093E1
:1007B0007A0080917A00806880937A001092C1005C
:1007C00060E084E00E94090160E083E00E9409018A
:1007D00060E08EE00E94090160E08FE00E94090164
:1007E00061E082E00E940901E0913C01F0913D014D
:1007F00082E08083E0913801F09139011082E0912C
:100800003A01F0913B0180E1808310924401E09134
:100810004001F091410186E08083E0913E01F0913A
:100820003F01808180618083E0913E01F0913F0132
:10083000808188608083E0913E01F0913F0180815A
:1008400080688083E0913E01F0913F0180818F7D3F
:10085000808300E010E0FF24F3948CE291E00E949A
:10086000AA01181619068CF48CE291E00E94880106
:10087000803309F04EC0F092220182E191E00E94A3
:1008800073028DE191E00E9473028091220188231E
:1008900009F445C081E00E94B5008FE00E943A0152
:1008A000EC018EE00E943A01BE01681B790B072E15
:1008B000000C880B990B0E94800280E291E00E945C
:1008C000730284E090E00E945902BC01990F880BEA
:1008D000990B0E94800280E291E00E94730283E003
:1008E00090E00E945902BC01990F880B990B0E945D
:1008F00080028DE191E00E9473020115110509F457
:10090000ACCF0E94B601882309F4A7CF0E94000053
:10091000A4CF813309F0B9CF10922201B6CF80E085
:10092000BACFECE2F1E01382128288EE93E0A0E00D
:10093000B0E084839583A683B78384E091E09183BC
:10094000808385EC90E09587848784EC90E097879E
:10095000868780EC90E0918B808B81EC90E0938B8C
:10096000828B82EC90E0958B848B86EC90E0978B69
:10097000868B118E128E138E148E0895A1E21A2E7C
:10098000AA1BBB1BFD010DC0AA1FBB1FEE1FFF1F33
:10099000A217B307E407F50720F0A21BB30BE40B83
:1009A000F50B661F771F881F991F1A9469F76095CA
:1009B0007095809590959B01AC01BD01CF01089584
:1009C000EE0FFF1F0590F491E02D0994F894FFCFEE
:1009D00000000000EC014C0179013902AA018801F4
:1009E0009C0153756363657373212121000D0A0017
:0209F0002000E5
:107E0000112484B714BE81FFF0D085E080938100F7
:107E100082E08093C00088E18093C10086E0809377
:107E2000C20080E18093C4008EE0C9D0259A86E02C
:107E300020E33CEF91E0309385002093840096BBD3
:107E4000B09BFECF1D9AA8958150A9F7CC24DD24C4
:107E500088248394B5E0AB2EA1E19A2EF3E0BF2EE7
:107E6000A2D0813461F49FD0082FAFD0023811F036
:107E7000013811F484E001C083E08DD089C08234E0
:107E800011F484E103C0853419F485E0A6D080C0E4
:107E9000853579F488D0E82EFF2485D0082F10E0AE
:107EA000102F00270E291F29000F111F8ED06801E7
:107EB0006FC0863521F484E090D080E0DECF843638
:107EC00009F040C070D06FD0082F6DD080E0C81688
:107ED00080E7D80618F4F601B7BEE895C0E0D1E017
:107EE00062D089930C17E1F7F0E0CF16F0E7DF06D8
:107EF00018F0F601B7BEE89568D007B600FCFDCFD4
:107F0000A601A0E0B1E02C9130E011968C91119780
:107F100090E0982F8827822B932B1296FA010C0160
:107F200087BEE89511244E5F5F4FF1E0A038BF0790
:107F300051F7F601A7BEE89507B600FCFDCF97BE46
:107F4000E89526C08437B1F42ED02DD0F82E2BD052
:107F50003CD0F601EF2C8F010F5F1F4F84911BD097
:107F6000EA94F801C1F70894C11CD11CFA94CF0C13
:107F7000D11C0EC0853739F428D08EE10CD085E9AC
:107F80000AD08FE07ACF813511F488E018D01DD067
:107F900080E101D065CF982F8091C00085FFFCCF94
:107FA0009093C60008958091C00087FFFCCF809118
:107FB000C00084FD01C0A8958091C6000895E0E648
:107FC000F0E098E1908380830895EDDF803219F02E
:107FD00088E0F5DFFFCF84E1DECF1F93182FE3DFCA
:107FE0001150E9F7F2DF1F91089580E0E8DFEE27F6
:047FF000FF270994CA
:027FFE00040479
:00000001FF
